:020000040000FA
:100000000C9463000C948B000C948B000C94A00552
:100010000C94A0050C94A0050C948B000C948B0000
:100020000C948B000C948B000C948B000C948B0024
:100030000C948B000C948B000C948B000C948B0014
:100040000C9456050C948B000C9424050C94FE041F
:100050000C948B000C948B000C948B000C948B00F4
:100060000C948B000C948B0000000008000201002F
:100070000003040700000000000000000000000072
:1000800023002600290000000000240027002A0089
:1000900000000000250028002B00040404040404D0
:1000A0000404020202020202030303030303010227
:1000B00004081020408001020408102001020408F6
:1000C00010206406E90E11241FBECFEFD8E0DEBF7A
:1000D000CDBF13E0A0E0B1E0E6E5F4E202C0059098
:1000E0000D92A832B107D9F724E0A8E2B3E001C02D
:1000F0001D92AE3DB207E1F710E0C2E6D0E004C0C9
:100100002197FE010E94C311C136D107C9F70E9491
:1001100014080C941E120C940000AF92BF92CF9260
:10012000DF92EF92FF920F931F93CF93DF936C01B7
:100130007B018B01040F151FEB015E01AE18BF0898
:10014000C017D10759F06991D601ED91FC9101904A
:10015000F081E02DC6010995892B79F7C501DF9162
:10016000CF911F910F91FF90EF90DF90CF90BF90B4
:10017000AF900895FC01538D448D252F30E0842FDE
:1001800090E0821B930B541710F0CF9608950197BF
:100190000895FC01918D828D981761F0A28DAE0FAC
:1001A000BF2FB11D5D968C91928D9F5F9F73928F33
:1001B00090E008958FEF9FEF0895FC01918D828D5F
:1001C000981731F0828DE80FF11D858D90E008952C
:1001D0008FEF9FEF0895FC01918D228D892F90E084
:1001E000805C9F4F821B91098F739927089585E743
:1001F00093E00E94EB0021E0892B09F420E0822F9C
:10020000089580E090E0892B29F00E94F700811189
:100210000C9400000895FC01A48DA80FB92FB11D06
:10022000A35ABF4F2C91848D90E001968F7399272C
:10023000848FA689B7892C93A089B1898C9183700A
:1002400080648C93938D848D981306C00288F38903
:10025000E02D80818F7D80830895EF92FF920F9330
:100260001F93CF93DF93EC0181E0888F9B8D8C8D62
:1002700098131AC0E889F989808185FF15C09FB756
:10028000F894EE89FF896083E889F9898081837019
:10029000806480839FBF81E090E0DF91CF911F91C8
:1002A0000F91FF90EF900895F62E0B8D10E00F5FE9
:1002B0001F4F0F731127E02E8C8D8E110CC00FB6BF
:1002C00007FCFACFE889F989808185FFF5CFCE0157
:1002D0000E940B01F1CFEB8DEC0FFD2FF11DE35AC6
:1002E000FF4FF0829FB7F8940B8FEA89FB898081DA
:1002F0008062CFCFCF93DF93EC01888D8823B9F054
:10030000AA89BB89E889F9898C9185FD03C0808120
:1003100086FD0DC00FB607FCF7CF8C9185FFF2CF9D
:10032000808185FFEDCFCE010E940B01E9CFDF91E7
:10033000CF9108952FB7F89460916D0370916E037B
:1003400080916F03909170032FBF089520917303E4
:10035000309174032817390771F4909171038091DB
:100360007203981741F0E0917103F0E0E85DFC4FF3
:10037000808190E008958FEF9FEF08950895EF92A8
:10038000FF920F931F93CF93DF93DC015C96ED9068
:10039000FC905D97E114F10479F481E090E013960C
:1003A0009C938E93129790E080E0DF91CF911F9104
:1003B0000F91FF90EF9008955196ED91FC91529717
:1003C00050968C915097982F90950FB75E962C91E0
:1003D0005E97122F127021FD6095F89420811123F1
:1003E00019F1282B2083E7012197F1F728E0462F08
:1003F00050E0308160FF1AC0382B3083E70121972D
:10040000F1F7BA0175956795215089F7112381F0AD
:100410008081892380830FBF5C968D919C91019789
:10042000F1F781E090E0C1CF2923DCCF3923E5CF7C
:100430009081892BEFCF209173033091740328179B
:10044000390771F4809172032091710390E0805C10
:100450009F4F821B910960E470E00E948D11089506
:1004600090E080E008952091730330917403281781
:100470003907B9F49091710380917203981789F04C
:10048000E0917103F0E0E85DFC4F80812091710301
:1004900030E02F5F3F4F2F7333272093710390E09D
:1004A00008958FEF9FEF089590E080E00895CF9337
:1004B000DF93EC018A859B85AC85BD858E839F8308
:1004C000A887B9870E949A016A837B838C839D8366
:1004D00081E089838883DF91CF910895CF93DF9363
:1004E000EC018E819F81A885B9858A839B83AC832B
:1004F000BD830E949A016A877B878C879D8781E0F4
:1005000089838883DF91CF910895FC0101900020B9
:10051000E9F73197AF01481B590BBC0185E793E020
:100520000C948D008F929F92AF92BF920F931F9366
:10053000CF93DF93CDB7DEB7A1970FB6F894DEBFA8
:100540000FBECDBF19A2423008F44AE08E010F5D04
:100550001F4F842E912CB12CA12CA50194010E9437
:10056000A111E62FB901CA01EA30F4F4E05DD80127
:10057000EE938D01232B242B252B79F790E080E03F
:10058000109719F0CD010E948502A1960FB6F8943C
:10059000DEBF0FBECDBFDF91CF911F910F91BF90F6
:1005A000AF909F908F900895E95CE1CFCF93DF9358
:1005B0004AE00E949202EC0184E291E00E948502EE
:1005C0008C0F9D1FDF91CF910895CF92DF92EF9214
:1005D000FF92CF93DF936B017C01F7FE1FC06DE2AA
:1005E00085E793E00E942D01EC0166277727CB0178
:1005F0006C197D098E099F094AE00E949202C80F7A
:10060000D91F84E291E00E9485028C0F9D1FDF912B
:10061000CF91FF90EF90DF90CF9008954AE00E9435
:100620009202EC01EECF0C9485024F925F926F9292
:100630007F928F929F92AF92BF92CF92DF92EF9272
:10064000FF920F931F93CF936B017C01742EAC012B
:100650009B010E947811882399F087E291E0CF9165
:100660001F910F91FF90EF90DF90CF90BF90AF90D0
:100670009F908F907F906F905F904F900C94850229
:1006800046015701E894B7F82FEF3FEF4FE75FE7D8
:10069000C501B4010E94781181110DC02FEF3FEF09
:1006A0004FE75FE7C501B4010E94AE0F18161CF4B6
:1006B0008BE291E0D4CF2FEF3FEF4FE75FE4C7012C
:1006C000B6010E94061118161CF48FE291E0C7CF04
:1006D0002FEF3FEF4FE75FECC701B6010E94AE0F6F
:1006E00087FDF3CF20E030E0A901C701B6010E94E9
:1006F000AE0F10E000E087FF0AC06DE285E793E0EF
:100700000E942D018C01F7FAF094F7F8F094C0E004
:1007100060E070E080E09FE37C1641F020E030E094
:1007200040E251E40E94B30FCF5FF6CFA7019601DC
:100730000E94420F2B013C010E9425104B015C01DD
:100740004AE00E9492027C01E00EF11ECC23C1F12E
:10075000C501B4010E9454109B01AC01C301B20158
:100760000E94410F4B015C016EE285E793E00E941D
:100770002D01E80EF91EC15018F120E030E040E2F2
:1007800051E4C501B4010E940B112B013C010E94F0
:1007900025104B01B12CA12C4AE0C501B4010E94E7
:1007A0009202E80EF91EC501B4010E9454109B018B
:1007B000AC01C301B2010E94410F4B015C01DBCFD0
:1007C000C701CF911F910F91FF90EF90DF90CF90D5
:1007D000BF90AF909F908F907F906F905F904F9061
:1007E0000895CF93DF930E941503EC0184E291E01A
:1007F0000E9485028C0F9D1FDF91CF910895CF93AA
:10080000DF93682F70E090E080E04AE00E9492025F
:10081000EC0184E291E00E9485028C0F9D1FDF9124
:10082000CF910895CF93DF93BC0190E080E04AE040
:100830000E949202EC0184E291E00E9485028C0FFA
:100840009D1FDF91CF9108952F923F924F925F921B
:100850006F927F928F929F92AF92BF92CF92DF92D0
:10086000EF92FF920F931F93CF93DF93D82FC92F4F
:100870008B010E94050F24E630E040E050E00E942A
:10088000A11149019B01AC0160E876E988E990E09B
:100890000E947D116B017C01F80191828082ED2F15
:1008A000FC2F2191822F022E000C990BC0970A97E2
:1008B000C0F32E3239F51F0180E8882E86E9982E84
:1008C00088E9A82EB12C9AE0492E512C612C712C6C
:1008D000F101C1911F010C2E000CDD0BE097CA3015
:1008E000D10580F4C501B401A30192010E94A111B8
:1008F00049015A01DE010E94D411C60ED71EE81E1E
:10090000F91EE6CFA5E0B0E0A70196010E94C9114B
:100910006F5F7F4F8F4F9F4F23E030E040E050E00C
:100920000E94A111F80122833383448355831682E8
:10093000DF91CF911F910F91FF90EF90DF90CF90BB
:10094000BF90AF909F908F907F906F905F904F90EF
:100950003F902F9008951F93CF93DF93EC01188160
:100960001D3209F42196CE010E94050F9B01AC01B6
:10097000A4E6B0E00E94C911AB01BC01FE012991BF
:10098000822F022E000C990BC0970A97B8F32E32D3
:1009900031F58181082E000C990BC0978A309105A2
:1009A000F0F4AAE0A89F9001A99F300D1124C9017D
:1009B000330FAA0BBB0B480F591F6A1F7B1F828185
:1009C000082E000C990BC0978A30910540F4092E2F
:1009D000000CAA0BBB0B480F591F6A1F7B1F1D324F
:1009E00039F470956095509541955F4F6F4F7F4FEB
:1009F000CB01BA01DF91CF911F9108951F920F9201
:100A00000FB60F9211242F933F934F935F936F93E1
:100A10007F938F939F93AF93BF93EF93FF9385E75C
:100A200093E00E940B01FF91EF91BF91AF919F91D5
:100A30008F917F916F915F914F913F912F910F9087
:100A40000FBE0F901F9018951F920F920FB60F9226
:100A500011242F938F939F93EF93FF93E09185033E
:100A6000F09186038081E0918B03F0918C0382FDED
:100A70001BC0908180918E038F5F8F7320918F03B5
:100A8000821741F0E0918E03F0E0EB58FC4F958F18
:100A900080938E03FF91EF919F918F912F910F90F3
:100AA0000FBE0F901F9018958081F4CF1F920F9268
:100AB0000FB60F9211242F933F938F939F93AF9371
:100AC000BF9380916D0390916E03A0916F03B091DD
:100AD000700330916C0323E0230F2D3758F50196F6
:100AE000A11DB11D20936C0380936D0390936E0341
:100AF000A0936F03B0937003809168039091690392
:100B0000A0916A03B0916B030196A11DB11D809362
:100B1000680390936903A0936A03B0936B03BF913A
:100B2000AF919F918F913F912F910F900FBE0F909A
:100B30001F90189526E8230F0296A11DB11DD2CF54
:100B40001F920F920FB60F9211242F933F934F9342
:100B50005F936F937F938F939F93AF93BF93EF9325
:100B6000FF93E0917303F0917403309749F0A685E9
:100B7000B7858585968D91FF14C09C918923A1F43A
:100B8000FF91EF91BF91AF919F918F917F916F9165
:100B90005F914F913F912F910F900FBE0F901F903B
:100BA00018959C91892361F7A389B4899C918589C3
:100BB000809589238C93868997890197F1F7608DB9
:100BC000718DA685B785558538E020E0CB0101976A
:100BD000F1F7822F90E095958795282F4C9145232A
:100BE00009F02068315091F7868D81FD2095809124
:100BF000720390E001968F73992730917103381733
:100C000099F0A0917203B0E0A85DBC4F2C93809343
:100C10007203828D938D0197F1F7A389B4898C912A
:100C20009589892B8C93ACCF868D8160868FF1CF8F
:100C300090E0FC01E859FF4F2491FC01E255FF4F81
:100C40003491FC01E656FF4FE491EE23C9F02223D4
:100C500039F0233001F1A8F4213019F1223029F1C3
:100C6000F0E0EE0FFF1FE057FF4FA591B4918FB753
:100C7000F894EC91611126C030953E233C938FBFD0
:100C800008952730A9F02830C9F0243049F7809121
:100C900080008F7D03C0809180008F7780938000DB
:100CA000DFCF84B58F7784BDDBCF84B58F7DFBCF5D
:100CB0008091B0008F778093B000D2CF8091B00048
:100CC0008F7DF9CF3E2BDACF0F931F93CF93DF9316
:100CD000109278031092770388EE93E0A0E0B0E0E2
:100CE0008093790390937A03A0937B03B0937C0362
:100CF00024E031E0309376032093750325EC30E057
:100D0000309382032093810324EC30E030938403FA
:100D10002093830320EC30E03093860320938503F7
:100D200021EC30E0309388032093870322EC30E0FD
:100D300030938A032093890326EC30E030938C03B0
:100D400020938B0310928E0310928F0310929003C6
:100D500010929103109231041092320410923404D4
:100D60001092330410923504109236041092370416
:100D7000109238041092390410923B0410923A04F5
:100D800010923C0410923D0410923E0410923F04D5
:100D900010924004109242041092410410924304B5
:100DA0001092440410924504109246041092470495
:100DB000109249041092480410924A0410924B0475
:100DC00010924C0410924D0410924E041092530451
:100DD0001092540410925504109256041092570425
:100DE00010925804109261041092620410926304ED
:100DF00010926404109265041092660410926F04BD
:100E00001092700410927504109276041092770478
:100E10001092780410927D0410927E041092830444
:100E200010928404109285041092860410928B0410
:100E300010928C04109291041092920410929304D8
:100E4000109294041092990410929A0410929F04A4
:100E50001092A0041092A1041092A2041092A70470
:100E60001092A8041092AD041092AE041092AF0438
:100E70001092B0041092B5041092B60422E02093B0
:100E8000C6041092C7041092C8041092C9041092AC
:100E9000CB041092CA041092CD041092CC0410928C
:100EA000CE041092CF041092D0041092D10410926C
:100EB000D2041092D3041092D4041092D50410924C
:100EC000D6041092D7041092D8041092D90410922C
:100ED000DA041092DB041092DC041092DD0410920C
:100EE000B704109215041092140480931604909382
:100EF0001704A0931804B093190486E191E090932D
:100F00001304809312041092290410922804109262
:100F10002B0410922A0410922D0410922C0410928B
:100F20002F0410922E04609130046E7F6D7F6093C9
:100F300030046695617081E0682783E00E9418069E
:100F400041EB50E0FA0164918DE990E0FC012491BD
:100F5000222399F030E0220F331FF901EA57FF4FA7
:100F6000A591B491F901E057FF4F259134912FB726
:100F7000F8943C91632B6C932FBFFA0144914093FA
:100F80002204FC018491E82FF0E0EE0FFF1FE057F0
:100F9000FF4F85919491909324048093230402EB56
:100FA00010E0F8012491CEE9D0E0FE01849188237D
:100FB000C9F090E0880F991FFC01EA57FF4FA591F7
:100FC000B491FC01E057FF4F459154913FB7F8941D
:100FD0009C91822F809598239C93FA01908189237C
:100FE00080833FBF8091300481FD04C061E084E0D4
:100FF0000E94180684E080931E04F8010491009377
:101000001F04FE01C491EC2FF0E0EE0FFF1FE45827
:10101000FF4F859194919093210480932004DF9158
:10102000CF911F910F910895789484B5826084BD0B
:1010300084B5816084BD85B5826085BD85B58160DC
:1010400085BD80916E00816080936E00109281005A
:101050008091810082608093810080918100816015
:1010600080938100809180008160809380008091D6
:10107000B10084608093B1008091B0008160809362
:10108000B00080917A00846080937A0080917A0029
:10109000826080937A0080917A00816080937A00E8
:1010A00080917A00806880937A001092C100E0916C
:1010B0008503F091860382E08083E0918103F091C3
:1010C00082031082E0918303F09184038FEC80838C
:1010D00010928D03E0918903F0918A0386E080836A
:1010E000E0918703F0918803808180618083E091A3
:1010F0008703F0918803808188608083E091870373
:10110000F0918803808180688083E0918703F0916B
:10111000880380818F7D808310922D0410922C048F
:1011200010922B0410922A04109229041092280481
:101130008DE991E090932F0480932E0490911E04EA
:10114000963108F047C02DEB30E03093290420930E
:1011500028042BE931E030932B0420932A042CE25D
:1011600031E030932D0420932C042091680084E01A
:10117000983048F031E09E3008F430E081E001C062
:10118000880F3A95EAF7822B809368002DE630E0CD
:10119000983050F02BE630E09E3030F02CE630E016
:1011A000963110F030E020E030932604209325049F
:1011B000292F30E0983008F032C181E001C0880F5B
:1011C0009A95EAF78093270480912E0490912F043A
:1011D0000197F1F780912C0490912D04892B49F10E
:1011E000E0917303F091740324E0E231F20709F116
:1011F000309739F0A389B4899C918589809589239A
:101200008C93809130048E7F80933004109272030F
:101210001092710382E194E09093740380937303BE
:10122000E0912504F0912604808190912704892B78
:10123000808384E6C82ED12CE12CF12C90E1892EFC
:1012400097E2992EA12CB12C20E0222E20E0322E04
:10125000D1E082E194E00E941B02181619060CF0FE
:10126000A4C582E194E00E943302C82F8091CE048D
:101270009091CF04A091D004B091D1040196A11D0A
:10128000B11D8093CE049093CF04A093D004B0936B
:10129000D104C43209F461C5E091C804C5320CF030
:1012A000CBC0CA3019F0CD3009F065C5EF3008F079
:1012B00040C1F0E0E954FB4F10828091B6048823CE
:1012C00009F412C42091B704822F022E000C990B4E
:1012D0003FEB320F363008F0BBC0C7978295807F56
:1012E0009091B804292F092E000C330B4FEB490FB6
:1012F000463008F0B5C027533109820F9091B504EC
:10130000891304C18091DA049091DB04A091DC047C
:10131000B091DD040196A11DB11D8093DA04909374
:10132000DB04A093DC04B093DD048091C90488231E
:1013300099F08091D2049091D304A091D404B091FB
:10134000D5040196A11DB11D8093D2049093D304BE
:10135000A093D404B093D5041091C604112309F4CA
:1013600088C01130A1F583E594E00E946E0281E609
:1013700094E00E946E028091C904882341F187E0C5
:10138000E1E4F4E0A3E3B4E001900D928A95E1F783
:1013900087E0E8E4F4E0AAE3B4E001900D928A95D6
:1013A000E1F70E949A0160934F0470935004809378
:1013B00051049093520410933204109331048FE639
:1013C00094E00E9457028DE794E00E94570200913A
:1013D000CC041091CD040115110509F4AAC0E091C7
:1013E000CC04F091CD0466A177A1F80186A197A164
:1013F0000E94FF11892B09F09CC0B801C8014096DA
:101400000E9408120E949A01F80160A371A382A3AE
:1014100093A321E025A324A302A513A5DCCF9E302E
:1014200040F42850310981E001C0880F2A95EAF77D
:10143000C9CE2E503109F7CFCA3209F437CFCC329A
:1014400009F099C48091B5048C278093B5042ECF00
:101450002156263018F48755910940CFC0973ECFCA
:101460009156963018F42755310947CF205331094A
:1014700044CF81E694E00E946E028091C9048823E3
:1014800021F187E0E1E4F4E0A3E3B4E001900D9200
:101490008A95E1F787E0E8E4F4E0AAE3B4E001909C
:1014A0000D928A95E1F70E949A0160934F04709320
:1014B00050048093510490935204D0933204D093FB
:1014C00031048BE894E00E9457028091A30490912C
:1014D000A404A091A504B091A60480939F049093C6
:1014E000A004A093A104B093A2040E949A01609367
:1014F0009B0470939C0480939D0490939E04D093CE
:101500009A04D093990487EA94E05FCF8091D6043F
:101510009091D704A091D804B091D9040196A11D4F
:10152000B11D8093D6049093D704A093D804B093B0
:10153000D9048091C7048F5F8093C7041092C804B8
:1015400081E0CA3209F080E08093B60480913204D1
:10155000882309F47ECE8FE491E00E941303109259
:101560003204609135047091360480913704909173
:1015700038040E94541028E23BE64EE65EE40E94E6
:10158000B30F2B013C01609133047091340490E05F
:1015900080E00E9454109B01AC01C301B2010E9483
:1015A000420F209139042111905846E00E94150302
:1015B0008AE591E00E9413031092320460913C048A
:1015C00070913D0480913E0490913F040E9454101C
:1015D00028E23BE64EE65EE40E94B30F2B013C019D
:1015E00060913A0470913B0490E080E00E945410B6
:1015F0009B01AC01C301B2010E94420F2091400443
:101600002111905846E050E00E94F10387E691E0F6
:101610000E9413031092320480913904882309F444
:10162000BEC383E391E00E941303109232048091C1
:101630003304909134040E94120410923204609199
:1016400035047091360480913704909138040E94DB
:10165000D60287E791E00E94130310923204809132
:101660004004882309F49EC383E391E00E9413039E
:101670001092320480913A0490913B040E9412042B
:101680001092320460913C0470913D0480913E04BC
:1016900090913F040E94D60288E891E00E941303D3
:1016A000109254046091550470915604809157042F
:1016B000909158040E94D6028BE991E00E94130396
:1016C000109254046091550470915604809157040F
:1016D00090915804A70196010E94A111CB0180535B
:1016E000984F0E94120483EA91E00E941303109223
:1016F0005404609155047091560480915704909160
:101700005804A70196010E94A111CA01B901A701BD
:1017100096010E94A111862F0E94FF038CEA91E09E
:101720000E94130310925404609155047091560462
:101730008091570490915804A50194010E94A11131
:10174000822F0E94FF0383EB91E00E94130310920B
:1017500062046091630470916404809165049091C7
:1017600066040E94D6028BEC91E00E941303109253
:1017700062046091630470916404809165049091A7
:10178000660420E432E44FE050E00E94A111822F71
:101790000E94FF0383ED91E00E9413031092620404
:1017A0006091630470916404809165049091660473
:1017B000A50194010E94A111CA01B901A7019601D6
:1017C0000E94A111862F0E94FF038DED91E00E94DF
:1017D0001303109262046091630470916404809119
:1017E000650490916604A70196010E94A111CA01A7
:1017F000B901A70196010E94A111862F0E94FF0343
:1018000087EE91E00E9413031092620460916304DA
:10181000709164048091650490916604A70196011B
:101820000E94A111862F0E94FF0386EF91E00E9483
:101830001303109270046091750470917604809186
:101840007704909178040E94E50282E192E00E9480
:101850001303109270046091750470917604809166
:101860007704909178040E94561020E030E048EC14
:1018700052E40E94B30F42E050E00E94F10386E27E
:1018800092E00E94130310927004609175047091AD
:10189000760480917704909178040E9456102EEB84
:1018A0003CE443E95FE30E940B1120E030E048ECA8
:1018B00052E40E94B30F42E050E00E94F1038AE339
:1018C00092E00E941303109270046091750470916D
:1018D000760480917704909178040E94561021EA52
:1018E00032EB43E05FE30E940B1120E030E048EC74
:1018F00052E40E94B30F42E050E00E94F1038AE4F8
:1019000092E00E941303109270046091750470912C
:10191000760480917704909178040E94561026E511
:101920003EE04DEE5FE30E940B1120E030E048EC1A
:1019300052E40E94B30F42E050E00E94F1038BE5B5
:1019400092E00E94130310927E04609183047091D0
:10195000840480918504909186040E94E50284E7C6
:1019600092E00E94130310927E04609183047091B0
:10197000840480918504909186040E94561020E092
:1019800030E048EC52E40E94B30F42E050E00E9485
:10199000F10389E892E00E94130310928C04609195
:1019A00091047091920480919304909194040E9408
:1019B000E50288EA92E00E94130310928C04609181
:1019C00091047091920480919304909194040E94E8
:1019D000561020E030E048EC52E40E94B30F42E0A1
:1019E00050E00E94F1038EEB92E00E9413031092EC
:1019F0008C04609191047091920480919304909171
:101A000094040E94561023E833EE42E25AE30E9407
:101A10000B1120E030E048EC52E40E94B30F42E0AA
:101A200050E00E94F10383ED92E00E9413031092B4
:101A30008C04609191047091920480919304909130
:101A400094040E9456102FE632E143E85AE30E94C4
:101A50000B1120E030E048EC52E40E94B30F42E06A
:101A600050E00E94F1038DEE92E00E941303109269
:101A70008C046091910470919204809193049091F0
:101A800094040E94561028E439EF41E550E40E9486
:101A90000B1120E030E048EC52E40E94B30F42E02A
:101AA00050E00E94F10381E093E00E941303109242
:101AB0009A0460919F047091A0048091A104909178
:101AC000A2040E94D60280E293E00E9413031092C7
:101AD000A8046091AD047091AE048091AF04909120
:101AE000B0040E94E502B5CB9091C704911146C0A5
:101AF00067E371E087EB94E00E94FF11892B41F0CE
:101B00006DE371E087EB94E00E94FF11892BF9F4FB
:101B1000D093C6048091CA049091CB049093CD04D5
:101B20008093CC040091CC041091CD0401151105D3
:101B300009F4FFCC67EB74E0F80186A197A10E943D
:101B4000FF1197FF3EC1F80182A593A5E7CF63E49B
:101B500071E087EB94E00E94FF11892B41F069E46A
:101B600071E087EB94E00E94FF11892B19F4109229
:101B7000C604D0CF82E08093C604CCCFE091C604E7
:101B8000E23009F448C08091B704882309F443C0C7
:101B900020E2E29FF0011124E92B3197E932F105AF
:101BA00008F039C0EA52F24F0C94C311FF0D400EF9
:101BB000470E4E0E510E7F0E860E930EA00E0B0E8C
:101BC0000B0E0B0E0B0E0B0E0B0E0B0E0B0E0B0E4D
:101BD0000B0E0B0E0B0E0B0E0B0E0B0E0B0E0B0E3D
:101BE0000B0E0B0E0B0E0B0E0B0E0B0EFF0D3A0E0B
:101BF000400E470E4E0E510E580E650E720E87EBBC
:101C000094E00E94AB04609367047093680480932F
:101C1000690490936A040091CC041091CD047090F3
:101C2000C7040115110509F484CCE091CC04F091AE
:101C3000CD0466A177A1F80186A197A10E94FF11AA
:101C4000892B09F076CCF80120A531A5872D90E0ED
:101C5000821793070CF46DCC2817390739F440E14B
:101C600050E067EB74E0C8010E940F12F80102A572
:101C700013A5D5CF91E0813409F445C090E043C06D
:101C800061E474E087EB94E00E942404C4CF91E007
:101C9000833509F090E090934704BDCF68E474E089
:101CA000F1CF91E0873509F090E090934E04B3CFE7
:101CB00087EB94E00E94AB046093790470937A04FC
:101CC00080937B0490937C04A6CF87EB94E00E94E2
:101CD000AB04609387047093880480938904909385
:101CE0008A0499CF87EB94E00E94050F6093590412
:101CF00070935A0480935B0490935C048CCF91E0C2
:101D000081330CF4BBCF9093C90485CF87EB94E06B
:101D10000E94050F6093A3047093A4048093A5040C
:101D20009093A60478CF87EB94E00E94AB04609375
:101D3000B1047093B2048093B3049093B4046BCF56
:101D400087EB94E00E94AB04609395047093960433
:101D500080939704909398045ECF1092C8041092D9
:101D6000C7041092B504F2E0F093C6041092B604D2
:101D70001092C904EBCBEE3040F481E08E0F8093DB
:101D8000C804F0E0E954FB4FC0838091B604811190
:101D9000DDCB8091B504C827C093B504D7CB85E3CC
:101DA00091E041CC85E391E061CC2114310409F448
:101DB0004FCA0E94F700882309F44ACA0E94000013
:101DC00047CA892B09F4B5CB1092CD041092CC04EC
:101DD000B0CB86E191E0909313048093120480913C
:101DE0007303909174038251944071F4E09125043F
:101DF000F091260490818091270480958923808327
:101E0000109274031092730308951F93FC01992795
:101E10008827BC01E89411911032E9F3193010F0D1
:101E20001E30C8F31B3251F01D3249F4689406C0CD
:101E30000E942C0F610F711D811D911D1191105376
:101E40001A30B0F33EF490958095709561957F4F70
:101E50008F4F9F4F1F910895592F482F372F262FAF
:101E6000660F771F881F991F660F771F881F991F9E
:101E7000620F731F841F951F660F771F881F991F9E
:101E800008955058BB27AA270E94590F0C94CC10D4
:101E90000E94BE1038F00E94C51020F039F49F3F18
:101EA00019F426F40C94BB100EF4E095E7FB0C94A7
:101EB000B510E92F0E94DD1058F3BA1762077307B7
:101EC0008407950720F079F4A6F50C94FF100EF422
:101ED000E0950B2EBA2FA02D0B01B90190010C013A
:101EE000CA01A0011124FF27591B99F0593F50F452
:101EF000503E68F11A16F040A22F232F342F4427AA
:101F0000585FF3CF469537952795A795F0405395A1
:101F1000C9F77EF41F16BA0B620B730B840BBAF071
:101F20009150A1F0FF0FBB1F661F771F881FC2F7DC
:101F30000EC0BA0F621F731F841F48F487957795F0
:101F40006795B795F7959E3F08F0B0CF9395880FAA
:101F500008F09927EE0F9795879508950E949110A4
:101F600008F481E008950E94C70F0C94CC100E94E1
:101F7000C51058F00E94BE1040F029F45F3F29F0D0
:101F80000C94B51051110C9400110C94BB100E94CC
:101F9000DD1068F39923B1F3552391F3951B550B8D
:101FA000BB27AA2762177307840738F09F5F5F4F2C
:101FB000220F331F441FAA1FA9F335D00E2E3AF06B
:101FC000E0E832D091505040E695001CCAF72BD083
:101FD000FE2F29D0660F771F881FBB1F26173707D4
:101FE0004807AB07B0E809F0BB0B802DBF01FF2706
:101FF00093585F4F3AF09E3F510578F00C94B5101E
:102000000C9400115F3FE4F3983ED4F386957795E6
:102010006795B795F7959F5FC9F7880F911D9695BE
:10202000879597F90895E1E0660F771F881FBB1F1A
:10203000621773078407BA0720F0621B730B840BC7
:10204000BA0BEE1F88F7E09508950E94E51088F01E
:102050009F5798F0B92F9927B751B0F0E1F0660F6C
:10206000771F881F991F1AF0BA95C9F714C0B130AD
:1020700091F00E94FF10B1E008950C94FF10672FBB
:10208000782F8827B85F39F0B93FCCF386957795DC
:102090006795B395D9F73EF49095809570956195C5
:1020A0007F4F8F4F9F4F0895E89409C097FB3EF4F0
:1020B00090958095709561957F4F8F4F9F4F992395
:1020C000A9F0F92F96E9BB279395F6958795779513
:1020D0006795B795F111F8CFFAF4BB0F11F460FFD3
:1020E0001BC06F5F7F4F8F4F9F4F16C0882311F02B
:1020F00096E911C0772321F09EE8872F762F05C03F
:10210000662371F096E8862F70E060E02AF09A95D9
:10211000660F771F881FDAF7880F9695879597F9CE
:102120000895990F0008550FAA0BE0E8FEEF161668
:102130001706E807F907C0F012161306E407F507BB
:1021400098F0621B730B840B950B39F40A2661F02F
:10215000232B242B252B21F408950A2609F4A140D2
:10216000A6958FEF811D811D089597F99F6780E8DF
:1021700070E060E008959FEF80EC089500240A94D9
:102180001616170618060906089500240A94121652
:102190001306140605060895092E0394000C11F485
:1021A000882352F0BB0F40F4BF2B11F460FF04C032
:1021B0006F5F7F4F8F4F9F4F089557FD9058440F8B
:1021C000551F59F05F3F71F04795880F97FB991F96
:1021D00061F09F3F79F08795089512161306140653
:1021E000551FF2CF4695F1DF08C0161617061806E0
:1021F000991FF1CF86957105610508940895E894BB
:10220000BB2766277727CB0197F908950E94911085
:1022100008F48FEF08950E941E110C94CC100E94B8
:10222000BE1038F00E94C51020F0952311F00C94D8
:10223000B5100C94BB1011240C9400110E94DD10F9
:1022400070F3959FC1F3950F50E0551F629FF00109
:10225000729FBB27F00DB11D639FAA27F00DB11D22
:10226000AA1F649F6627B00DA11D661F829F2227AB
:10227000B00DA11D621F739FB00DA11D621F839F32
:10228000A00D611D221F749F3327A00D611D231F08
:10229000849F600D211D822F762F6A2F11249F5756
:1022A00050409AF0F1F088234AF0EE0FFF1FBB1F59
:1022B000661F771F881F91505040A9F79E3F510518
:1022C00080F00C94B5100C9400115F3FE4F3983E3D
:1022D000D4F3869577956795B795F795E7959F5FC2
:1022E000C1F7FE2B880F911D9695879597F9089554
:1022F0000E949110880B990B0895DB018F939F9397
:102300000E94C911BF91AF91A29F800D911DA39F03
:10231000900DB29F900D1124089597FB072E16F48F
:10232000009407D077FD09D00E94DC1107FC05D08E
:102330003EF4909581959F4F0895709561957F4FDC
:102340000895A1E21A2EAA1BBB1BFD010DC0AA1FF6
:10235000BB1FEE1FFF1FA217B307E407F50720F00E
:10236000A21BB30BE40BF50B661F771F881F991F89
:102370001A9469F760957095809590959B01AC01D2
:10238000BD01CF010895EE0FFF1F0590F491E02DE0
:1023900009940E94F011A59F900DB49F900DA49FE9
:1023A000800D911D11240895B7FF0C94C9110E944E
:1023B000C911821B930B0895AA1BBB1B51E107C0D7
:1023C000AA1FBB1FA617B70710F0A61BB70B881FC5
:1023D000991F5A95A9F780959095BC01CD01089554
:1023E000A29FB001B39FC001A39F700D811D112456
:1023F000911DB29F700D811D1124911D0895FB0147
:10240000DC018D91019080190110D9F3990B089589
:10241000FB01DC0101900D920020E1F70895FB0122
:10242000DC014150504048F001900D920020C9F766
:1024300001C01D9241505040E0F7089510E0C2E6FF
:10244000D0E004C0FE010E94C3112196C336D1071B
:10245000C9F7F894FFCF000000002D018D00BA00ED
:102460007A01EB00C900DD0000000000BF018D0013
:102470005402BE011B023302A6010D0A006E616EFA
:1024800000696E66006F7666002D002B0047505283
:102490004D4300474E524D43004750474741004788
:1024A0004E474741004C617469747564653D200076
:1024B000204C6F6E6769747564653D2000526177CA
:1024C000206C61746974756465203D2000526177E9
:1024D000206C6F6E676974756465203D20005261E1
:1024E0007720646174652044444D4D5959203D2046
:1024F0000059656172203D20004D6F6E7468203D6B
:102500002000446179203D20005261772074696D7C
:102510006520696E2048484D4D53534343203D206C
:1025200000486F7572203D20004D696E75746520FE
:102530003D20005365636F6E64203D200043656E4F
:1025400074697365636F6E64203D2000526177206B
:10255000737065656420696E203130307468732F44
:102560006B6E6F74203D2000537065656420696E4A
:10257000206B6E6F74732F68203D2000537065656B
:102580006420696E206D696C65732F68203D2000A2
:10259000537065656420696E206D2F73203D2000A7
:1025A000537065656420696E206B6D2F68203D2037
:1025B0000052617720636F7572736520696E2064C5
:1025C000656772656573203D2000436F75727365A2
:1025D00020696E2064656772656573203D20005236
:1025E000617720616C74697475646520696E20631D
:1025F000656E74696D6574657273203D2000416C71
:1026000074697475646520696E206D657465727394
:10261000203D2000416C74697475646520696E20EA
:102620006D696C6573203D2000416C74697475643C
:102630006520696E206B696C6F6D657465727320BF
:102640003D2000416C74697475646520696E206674
:10265000656574203D20004E756D626572206F7354
:1026600020736174656C6C6974657320696E207584
:0E2670007365203D200048444F50203D20005F
:107E0000112484B714BE81FFF0D085E080938100F7
:107E100082E08093C00088E18093C10086E0809377
:107E2000C20080E18093C4008EE0C9D0259A86E02C
:107E300020E33CEF91E0309385002093840096BBD3
:107E4000B09BFECF1D9AA8958150A9F7CC24DD24C4
:107E500088248394B5E0AB2EA1E19A2EF3E0BF2EE7
:107E6000A2D0813461F49FD0082FAFD0023811F036
:107E7000013811F484E001C083E08DD089C08234E0
:107E800011F484E103C0853419F485E0A6D080C0E4
:107E9000853579F488D0E82EFF2485D0082F10E0AE
:107EA000102F00270E291F29000F111F8ED06801E7
:107EB0006FC0863521F484E090D080E0DECF843638
:107EC00009F040C070D06FD0082F6DD080E0C81688
:107ED00080E7D80618F4F601B7BEE895C0E0D1E017
:107EE00062D089930C17E1F7F0E0CF16F0E7DF06D8
:107EF00018F0F601B7BEE89568D007B600FCFDCFD4
:107F0000A601A0E0B1E02C9130E011968C91119780
:107F100090E0982F8827822B932B1296FA010C0160
:107F200087BEE89511244E5F5F4FF1E0A038BF0790
:107F300051F7F601A7BEE89507B600FCFDCF97BE46
:107F4000E89526C08437B1F42ED02DD0F82E2BD052
:107F50003CD0F601EF2C8F010F5F1F4F84911BD097
:107F6000EA94F801C1F70894C11CD11CFA94CF0C13
:107F7000D11C0EC0853739F428D08EE10CD085E9AC
:107F80000AD08FE07ACF813511F488E018D01DD067
:107F900080E101D065CF982F8091C00085FFFCCF94
:107FA0009093C60008958091C00087FFFCCF809118
:107FB000C00084FD01C0A8958091C6000895E0E648
:107FC000F0E098E1908380830895EDDF803219F02E
:107FD00088E0F5DFFFCF84E1DECF1F93182FE3DFCA
:107FE0001150E9F7F2DF1F91089580E0E8DFEE27F6
:047FF000FF270994CA
:027FFE00040479
:00000001FF
